:020000040000FA
:04000000C6EF0AF04D
:08000800F0EF0AF00000000017
:1000100000006D2FFBD712006B53000001E11200AE
:10002000F90E0000000000000000000000000000C9
:1000300000000000000000000000000000000000C0
:1000400000000000000000000000FF0FD8A4E9D766
:1000500000000000000000000000000000000000A0
:100060000000000000000000000000000000000090
:10007000000000000000000000006B2FD1D712002C
:10008000FA0E6B6F0CEC00F0FA0E6B6F0CEC00F0DC
:10009000FA0E6B6F0CEC00F0FA0E6B6F0CEC00F0CC
:1000A0006A2FEED7120078517C6F77517A6F7B6B95
:1000B000D8907A377B377A377B377A377B377A37FE
:1000C0007B37D80E7A27000E7B23000EFB6EFB22B7
:1000D0007B51FA6E7A51F96E000EF86E010EF76ED2
:1000E000A60EF66ECAEF00F0000EF86E010EF76E67
:1000F000B80EF66ECAEF00F0000EF86E010EF76E45
:10010000CC0EF66ECAEF00F0000EF86E010EF76E20
:10011000D40EF66ECAEF00F0000EF86E010EF76E08
:10012000E60EF66ECAEF00F0000EF86E010EF76EE6
:10013000F00EF66ECAEF00F0000EF86E010EF76ECC
:10014000FA0EF66ECAEF00F0000EF86E020EF76EB1
:10015000040EF66ECAEF00F0000EF86E020EF76E97
:10016000100EF66ECAEF00F0000EF86E020EF76E7B
:100170001A0EF66ECAEF00F0000EF86E020EF76E61
:100180002C0EF66ECAEF00F0000EF86E020EF76E3F
:100190003E0EF66E7C51F626D8B0F72AD8B0F82A73
:1001A0000800F55012005649504552204D5033205A
:1001B00056312E313030000031384634353530205C
:1001C000402032344D485A20202000004552524FE2
:1001D000522000004E204F20204420492053204B25
:1001E000202120200000506C6179696E672000009A
:1001F00053746F707065642000005061757365649E
:1002000020200000506F77657220446F776E0000E9
:10021000506F77657220557000004E6F2046572052
:1002200066696C6520666F756E6400005570646168
:1002300074696E6720462F576172652000000002C6
:100240003E0D0202450D0302650D0D0250200E0207
:10025000530D0F02542001034E440D040343460D79
:10026000050342430D060344460D070346490D08A6
:1002700003524F0D0903464F0D0A034E450D0B0364
:10028000464E0D10034E550D11044444310D120419
:100290004444320D13044452310D14044452320DBF
:1002A0000000828482820000828C0000829C76B1F1
:1002B000828276A182920000828C0000829C8292CF
:1002C0000000828C0000829C800E7B6F765302E1DE
:1002D00077531AE07A6B7B5310E0000082A003D0C2
:1002E0007B517C6F01D07C6B7C517A13828C000037
:1002F000829C7B53D8907B33EED77951EA6E78514C
:10030000E96E7A51EF6E1AD07951EA6E7851E96E42
:10031000EF507A6F7B5312E07B517A1502E07C81BB
:1003200001D07C917CB182827CA182920000828C7F
:100330000000829C7B53D8907B33ECD700007B6B12
:1003400082B07B2B828C0000829C82940000828C85
:100350000000829C7B517C6F7D6B12009598959A72
:10036000959C959E00000000839400006CAF02D025
:100370006D8101D06D916DB1838E6DA1839E6CAD49
:1003800002D06D8101D06D916DB1838C6DA1839C84
:100390006CAB02D06D8101D06D916DB1838A6DA17E
:1003A000839A6CA902D06D8101D06D916DB1838863
:1003B0006DA18398140E6D6F06EC00F08380140E0F
:1003C0006D6F06EC00F083901200766B776B000E79
:1003D000796F730E786F51EC01F07C53F6E17D5329
:1003E000F4E112006B516C6FAEEC01F06B39F00B65
:1003F0006C6FAEEC01F01200D59ED59ED59CD59ABF
:10040000D596D580D582D5941200D58E1200D59E72
:10041000D59CD59AD596D590D592D594D58E1200E7
:10042000010E766F776B7451786F7551796F51EC5F
:1004300001F07C51766F7D51776F1200010E000143
:10044000766F776B000E796F740E786F51EC01F058
:100450007C53F4E17D53F2E17451756F12000D0E7F
:10046000676301D004D06751736FE5EC01F00D0EA6
:10047000736FE5EC01F0120083926A516B6FF2EC3E
:1004800001F0120083826A516B6FF2EC01F01200EE
:10049000D59E1200F40E00016B6F0CEC00F0818A07
:1004A000FA0E6B6F0CEC00F0819AFA0E6B6F0CEC8D
:1004B00000F0818AFA0E6B6F0CEC00F0819A81A437
:1004C000FED7FCEC01F03C0E6B6F0CEC00F080965C
:1004D000B40E6B6F0CEC00F0808681A2FED781B267
:1004E000FED707EC02F0818A81A2FED7140E6B6F53
:1004F0000CEC00F0FCEC01F0500E6B6F0CEC00F01B
:100500008096A00E6B6F0CEC00F08086500E6B6F27
:100510000CEC00F08096780E6B6F0CEC00F080868F
:1005200081B2FED705EC02F0320E6B6F0CEC00F0DE
:10053000819A250E676F2FEC02F0598059825988F5
:100540001200F40E00016B6F0CEC00F0818AFA0EC1
:100550006B6F0CEC00F0819AFA0E6B6F0CEC00F0F4
:10056000818AFA0E6B6F0CEC00F0819AFA0E6B6FB9
:100570000CEC00F0818AFA0E6B6F0CEC00F0819AA3
:1005800081A2FED7FCEC01F0640E6B6F0CEC00F066
:100590008096A00E6B6F0CEC00F08086320E6B6FB5
:1005A0000CEC00F081B4FED707EC02F0F40E6B6F98
:1005B0000CEC00F0818AFA0E6B6F0CEC00F0819A63
:1005C000FA0E6B6F0CEC00F0818AFA0E6B6F0CEC7C
:1005D00000F0819AFA0E6B6F0CEC00F0818AFA0E33
:1005E0006B6F0CEC00F0819A81A2FED7FCEC01F05D
:1005F000460E6B6F0CEC00F08096780E6B6F0CEC77
:1006000000F080863C0E6B6F0CEC00F080965A0E6A
:100610006B6F0CEC00F08086320E6B6F0CEC00F010
:1006200081B4FED705EC02F0640E6B6F0CEC00F0A9
:10063000818A580E6B6F0CEC00F0819A250E676F63
:100640002FEC02F05980598259881200800E000167
:100650006A6F3CEC02F0676B080E67611200535042
:10066000776F6751786F53EC00F06A6F42EC02F0DD
:10067000672BF2D70001716B6869696B000E756FAB
:10068000730E746F10EC02F0010E766303D0775195
:10069000D8B474D0716B040E716164D06C6B00EED1
:1006A0006DF0E9507151E9267351EF6EFF0E6863EA
:1006B00047D0000E696344D06251776F6C51786FF8
:1006C0006C2B53EC00F06A6F6B6B6251776F6C515F
:1006D000786F6C2B53EC00F0726F725331E07151F4
:1006E000746F756B742BD8B4752B7451726321D0F1
:1006F00075511FE16A51686F6B51696F766B71516B
:1007000076611BD072076251776F6C51786F6C2BDA
:1007100053EC00F0796F00EE6DF0E9507651E92668
:10072000EF507963EF6203D06869696B06D0762B6E
:10073000E6D77251716101D003D072516C27B6D7E0
:100740000D0E736301D00ED0FF0E68630BD069519C
:10075000000A08E11EEC02F07551736F6869696B5D
:10076000712B99D7040E716309D00D0E736301D0FC
:1007700005D01EEC02F07551736FF7D76851746F96
:100780006951756F12006751736FE5EC01F0200E2F
:10079000736FE5EC01F06851736FE5EC01F00D0E3D
:1007A000736FE5EC01F0120007EC02F0010E00019E
:1007B0006A6F40EC00F0818A81A2FED7FCEC01F068
:1007C000640E6B6F0CEC00F08096780E6B6F0CEC87
:1007D00000F080863C0E6B6F0CEC00F08096640E8F
:1007E0006B6F0CEC00F0808605EC02F0F40E6B6F82
:1007F0000CEC00F0819AFA0E6B6F0CEC00F0818A21
:10080000FA0E6B6F0CEC00F0819AFA0E6B6F0CEC29
:1008100000F0818AFA0E6B6F0CEC00F0819A260EC4
:10082000676F2FEC02F0F40E6B6F0CEC00F0260EED
:10083000676F2FEC02F059805982598812005A5282
:1008400003E1010E5A6E12005A04D8B45A6A12001B
:1008500094809492949C94948292829C82941200AC
:100860001EEC02F07551676F686B1EEC02F075515B
:100870006A6F000E67136A5168131EEC02F0800E57
:100880006A6F3CEC02F0696B080E69610BD0515045
:10089000776F6951786F53EC00F06A6F42EC02F0A9
:1008A000692BF2D7300E666F8C0E685D04E1A00EE6
:1008B000676101D007D006E3A00E675F8C0E685B0E
:1008C000662BF2D766516A6F42EC02F0300E666F0B
:1008D0000E0E685D04E1100E676101D007D006E3DB
:1008E000100E675F0E0E685B662BF2D766516A6F5B
:1008F00042EC02F03A0E6A6F42EC02F0300E666F84
:10090000020E685D04E1580E676101D007D006E36E
:10091000580E675F020E685B662BF2D766516A6FEE
:1009200042EC02F0300E666F68513C0E676101D0F8
:1009300006E03C0E675FD8A06807662BF5D76651C6
:100940006A6F42EC02F03A0E6A6F42EC02F0300E2F
:10095000666F68510A0E676101D006E00A0E675F94
:10096000D8A06807662BF5D766516A6F42EC02F093
:100970006751300F666F66516A6F42EC02F01200E9
:10098000010E00016A6F3CEC02F0020E6B6F0CEC82
:1009900000F0800E6A6F3CEC02F0666B080E666138
:1009A0000BD05250776F6651786F53EC00F06A6F3E
:1009B00042EC02F0662BF2D7666B400E66611200C5
:1009C00000EE05F0E9506651E926000EEF6E662B49
:1009D000F4D70001676B0D0E676111D01EEC02F0B9
:1009E0007551686F0D0E686301D009D000EE05F0F7
:1009F000E9506751E9266851EF6E672BECD7666BBB
:100A00001EEC02F07551686F0D0E6863F9D71EEC8D
:100A100002F07551686F0D0E686301D00CD0400E66
:100A20006661F5D700EE05F0E9506651662BE926C0
:100A30006851EF6EECD7665321E0400E666108D036
:100A400000EE05F0E9506651662BE926200EEF6EA8
:100A5000400E666108D000EE05F0E9506651662B45
:100A6000E9262D0EEF6E400E666108D000EE05F00F
:100A7000E9506651662BE926200EEF6E1EEC02F05F
:100A80007551686F0D0E686301D00CD0400E666121
:100A9000F5D700EE05F0E9506651662BE92668515E
:100AA000EF6EECD71EEC02F07551686F0D0E6863A7
:100AB000F9D71EEC02F07551686F0D0E6863F9D717
:100AC000666702D06751666F400E6661120000EEE5
:100AD00005F0E9506651662BE926000EEF6EF4D75B
:100AE0005DB002D05E6A5D80800E00016A6F3CECF2
:100AF00002F0666B100E666110D066515E24676F5F
:100B00000F0E67175050776F6751786F53EC00F0F6
:100B10006A6F42EC02F0662BEDD7C80E6B6F0CECDF
:100B200000F05E2A1200010E00016A6F3CEC02F038
:100B3000020E6B6F0CEC00F0800E6A6F3CEC02F062
:100B4000666B0A0E66610BD05450776F6651786FF2
:100B500053EC00F06A6F42EC02F0662BF2D7666B42
:100B6000400E666109D000EE05F0E9506651E926B5
:100B7000000EEF6E662BF4D7050E6A6F40EC00F0A6
:100B80008480F29ED19003008490F28E598CFF00F5
:100B9000D180010E6A6F3CEC02F0020E6B6F0CEC20
:100BA00000F0800E6A6F3CEC02F0666B080E666126
:100BB0000BD05550776F6651786F53EC00F06A6F29
:100BC00042EC02F0662BF2D7666B400E666109D0EC
:100BD00000EE05F0E9506651E926000EEF6E662B37
:100BE000F4D7050E6A6F40EC00F012005DB203D03E
:100BF0004B6A4C6A5D825DB402D05F6A5D8459A81D
:100C000006D05F6A4B6A4C6A59985984599A4B527C
:100C100002E14C5205E04B52D8B44C064B06120090
:100C2000700E4B6E170E4C6E0552D8B41200C00EEB
:100C300000016A6F3CEC02F05986676B100E676129
:100C400033D0080E5F6008D000EE05F0E950675120
:100C5000E926EF50666F1BD0696B5F506725686FA0
:100C6000D8B0692B480E6861696769670FD000EEDC
:100C700005F0E9506B6B5F5067256A6FD8B06B2B3E
:100C8000080E6A5DE926EF50666F01D0666B6667F5
:100C900005D0200E666F6753D8B4599666516A6FB7
:100CA00042EC02F0672BCAD759A602D05F2A120085
:100CB0005F6A1200010E6A6F3CEC02F0020E6B6F6D
:100CC0000CEC00F0800E6A6F3CEC02F0676B060ED5
:100CD00067610BD04F50776F6751786F53EC00F01E
:100CE0006A6F42EC02F0672BF2D766390F0B686F20
:100CF000090E686508D066390F0B6A6F370E6A27D0
:100D000042EC02F007D066390F0B6A6F300E6A278B
:100D100042EC02F00F0E6615696F090E696508D086
:100D20000F0E66156A6F370E6A2742EC02F007D085
:100D30000F0E66156A6F300E6A2742EC02F0010E44
:100D40006A6F40EC00F012003AEC03F07451666FE9
:100D50007551676F6751000802E166510C08F4E3B2
:100D60006651686F6751696F12009598959A959CC6
:100D7000959E9590959495928398839A839C839E53
:100D80008390839483920F0E00016B6F0CEC00F044
:100D9000300E6C6FAEEC01F0050E6B6F0CEC00F0DA
:100DA000300E6C6FAEEC01F0050E6B6F0CEC00F0CA
:100DB000300E6C6FAEEC01F0050E6B6F0CEC00F0BA
:100DC000200E6C6FAEEC01F0640E6D6F06EC00F05F
:100DD000280E6C6FAEEC01F0640E6D6F06EC00F047
:100DE000800E6C6FAEEC01F0640E6D6F06EC00F0DF
:100DF0000C0E6C6FAEEC01F0640E6D6F06EC00F043
:100E0000C00E6C6FAEEC01F0640E6D6F06EC00F07E
:100E1000060E6C6FAEEC01F0640E6D6F06EC00F028
:100E2000600E6C6FAEEC01F0640E6D6F06EC00F0BE
:100E3000010E6C6FAEEC01F0640E6D6F06EC00F00D
:100E4000100E6C6FAEEC01F0020E6B6F0CEC00F04C
:100E5000120000015DB602D0606B5D865DB802D005
:100E600061695D8859B01200666B665161636663A3
:100E70000AD0880E676F6651686FC3EC03F0665145
:100E8000616F59801200586A589081B25880589208
:100E900081B4588258A2E5D060B3E3D0320E6B6FB4
:100EA0000CEC00F058B096D160B194D180966E0EE3
:100EB0006B6F0CEC00F08086320E6B6F0CEC00F068
:100EC00081A253D081A201D0FDD75B9081B85B8015
:100ED000000E5BB2010A5BB0010AFF0B41E0000E9D
:100EE000485C08E1000E475C05E1000E465C02E14B
:100EF0001E0E455C11E38E0E676F2FEC02F05980D9
:100F0000598259881FEC04F05B925BB05B82456AA2
:100F1000466A476A486AA0D049520AE14A5208E143
:100F20008F0E676F2FEC02F0010E496E4A6A0BD0EC
:100F3000010E496208D04A5006E18A0E676F2FEC15
:100F400002F0496A4A6A5980598259881FEC04F0B4
:100F50005B925BB05B82456A466A476A486A7CD0AE
:100F600007EC02F04AEC02F077D01E0E6B6F0CEC2F
:100F700000F08096640E6B6F0CEC00F08086320EF1
:100F80006B6F0CEC00F081A206D081A201D0FDD7DE
:100F9000D4EC03F061D01E0E6B6F0CEC00F048EC4B
:100FA00002F08096640E6B6F0CEC00F08086320EBF
:100FB0006B6F0CEC00F05A5209E181A207D081B2AC
:100FC000FED707EC02F0A1EC02F046D081A21DD0C2
:100FD0003C0E6B6F0CEC00F080AA3ED0809A48EC7F
:100FE00002F0010E6A6F40EC00F081A406D08492FA
:100FF000200E676F2FEC02F02FD08B0E676F2FEC57
:1010000002F026EC03F0598059821E0E6B6F0CEC37
:1010100000F08096640E6B6F0CEC00F08086320E50
:101020006B6F0CEC00F080AA17D0809A48EC02F0AD
:10103000010E6A6F40EC00F081A406D08492200E6D
:10104000676F2FEC02F008D08B0E676F2FEC02F069
:1010500026EC03F059805982010E6A6F40EC00F0D3
:10106000B9D058A0B7D060B1B5D058B2B3D060B342
:10107000B1D0809A80966E0E6B6F0CEC00F080867B
:10108000808A320E6B6F0CEC00F081A44DD081A4ED
:1010900001D0FDD75B9081B85B80000E5BB2010A86
:1010A0005BB0010AFF0BD8B491D0000E485C08E198
:1010B000000E475C05E1000E465C02E11E0E455C39
:1010C00011E38E0E676F2FEC02F059805982598818
:1010D0001FEC04F05B925BB05B82456A466A476A2C
:1010E000486ABAD749520AE14A5208E18F0E676F3F
:1010F0002FEC02F0010E496E4A6A09D0010E496ECA
:101100004A6A8A0E676F2FEC02F0496A4A6A598070
:10111000598259881FEC04F05B925BB05B82456A90
:10112000466A476A486A98D71E0E6B6F0CEC00F04F
:101130008096640E6B6F0CEC00F08086320E6B6F45
:101140000CEC00F081A403D081A440D0FDD71E0E8A
:101150006B6F0CEC00F08096640E6B6F0CEC00F083
:101160008086320E6B6F0CEC00F081A410D081A44D
:1011700001D0FDD781A6FED705EC02F0808A8B0E48
:10118000676F2FEC02F05984598059821FD01E0ED0
:101190006B6F0CEC00F08096640E6B6F0CEC00F043
:1011A0008086320E6B6F0CEC00F081A40FD081A40E
:1011B00001D0FDD781A6FED705EC02F0808A8B0E08
:1011C000676F2FEC02F0598459805982010E6A6FC3
:1011D00040EC00F05850606F66B1120066B3120028
:1011E000599212006F866D960F0EC16E929A92946C
:1011F0009296929893829384969093889692939ADB
:101200008490809A8086849280848098819AD59EEA
:10121000D59CD59AD596D580D582D594D66AD76AED
:101220005A6AF28AF288F28CF28ED39ED180120032
:10123000010E0001666F020E676F030E686F040EE9
:10124000696F050E6A6F060E6B6F070E6C6F080EE6
:101250006D6F000E6F6F660E6E6F080E706F010E71
:10126000736FE5EC01F07051716F700771531EE000
:10127000200E736FE5EC01F06F51EA6E6E51E96E6E
:101280006E4B6F2BEF50736FE5EC01F07051726F86
:10129000700772530BE06F51EA6E6E51E96E6E4B40
:1012A0006F2BEF50736FE5EC01F0F0D70D0E736FFD
:1012B000E5EC01F01200848281A2FED7840E0001C9
:1012C0006B6F0CEC00F0808A140E6B6F0CEC00F06E
:1012D000809681A4FED781A202D081B4FCD781A4DC
:1012E000FED7280E6B6F0CEC00F08086500E6B6FF3
:1012F0000CEC00F0809A81A6FED781B6FED705ECF3
:1013000002F048EC02F081A6FED781B6FED705ECCC
:1013100002F048EC02F081A2FED70A0E6B6F0CECD3
:1013200000F0808A140E6B6F0CEC00F080960A0EB1
:101330006B6F0CEC00F080860A0E6B6F0CEC00F00B
:101340008096140E6B6F0CEC00F080860A0E6B6FAB
:101350000CEC00F08096140E6B6F0CEC00F08086A5
:101360000A0E6B6F0CEC00F080960A0E6B6F0CECA3
:1013700000F0808681A6FED705EC02F01200B5ECE5
:1013800006F028EC04F0F2EC08F0800E6A6F3CECFA
:1013900002F0636B100E63610BD04D50776F635199
:1013A000786F53EC00F06A6F42EC02F0632BF2D7D7
:1013B000C00E6A6F3CEC02F0636B100E63610BD0E1
:1013C0004E50776F6351786F53EC00F06A6F42ECC8
:1013D00002F0632BF2D7020E6A6F40EC00F00400BB
:1013E000450E676F2FEC02F0A4EC06F0020E686366
:1013F000FBD76951000AF8E1650E676F2FEC02F028
:10140000A4EC06F0030E6863EAD7000E6963E7D721
:10141000100E676F2FEC02F0A4EC06F06851646FB9
:101420006951656F645302E1655304E06451666F6E
:101430005AEC06F0150E676F2FEC02F0010E6A6F82
:101440003CEC02F0020E6B6F0CEC00F004000D0E91
:10145000676F2FEC02F0A4EC06F06851646F6951DD
:10146000656F010E646305D0000E656302D070ECF9
:1014700005F0010E646306D0000E656303D081A001
:1014800093EC05F06453E2E16553E0E1C0EC04F055
:10149000010E6A6F40EC00F018EC09F01EEC02F04F
:1014A000A4EC06F06851646F6951656F6453D8B459
:1014B0006553645302E1655317E0C00E6A6F3CEC5C
:1014C00002F0636B100E63610BD05650776F63515F
:1014D000786F53EC00F06A6F42EC02F0632BF2D7A6
:1014E000020E6A6F40EC00F05BEC09F08A0E676F49
:1014F0002FEC02F0596A598059825984599A056A29
:1015000004003AEC03F07451646F7551656F0D0E71
:10151000646309D0000E656306D0E9EC04F05984D9
:101520005990598829D00F0E646307D0000E656367
:1015300004D030EC04F059841FD00E0E646307D041
:10154000000E656304D0C0EC04F0599415D0010E70
:10155000646304D0000E656301D00ED0645304E1CF
:10156000655302E1599008D0FF0E646305D0000E68
:10157000656302D029EC07F0F6EC05F0010E0001DE
:101580006463BED76551000ABBE158D75D905D9298
:101590005D9400015D965D98000E4D6E010E4E6EDD
:1015A000020E4F6E030E506E040E516E050E526EFB
:1015B000060E536E070E546E080E556E090E566ECB
:1015C0000A0E576E5A6A040E5B6E5C6A496A4A6A72
:1015D000456A466A476A486A0B0E626FBFEF09F0B8
:1015E000EACF01F0E9CF02F0F4CF03F0F3CF04F03B
:1015F000F2A419D0F294FF0E80B4FE0E00017E6FAB
:101600007EB180847EA18094FF0E80B8FE0E7E6F36
:101610007EB180887EA18098452AD8B4462AD8B465
:10162000472AD8B4482AF2B2F29204C0F3FF03C0AA
:0C163000F4FF02C0E9FF01C0EAFF110056
:020000040030CA
:0E000000F0FED8F8FFFDBAFFFFFFFFFFFFFF85
:00000001FF
